{
  "contractName": "MinterRole",
  "abi": [
    {
      "inputs": [],
      "payable": false,
      "stateMutability": "nonpayable",
      "type": "constructor"
    },
    {
      "anonymous": false,
      "inputs": [
        {
          "indexed": true,
          "name": "account",
          "type": "address"
        }
      ],
      "name": "MinterAdded",
      "type": "event"
    },
    {
      "anonymous": false,
      "inputs": [
        {
          "indexed": true,
          "name": "account",
          "type": "address"
        }
      ],
      "name": "MinterRemoved",
      "type": "event"
    },
    {
      "constant": true,
      "inputs": [
        {
          "name": "account",
          "type": "address"
        }
      ],
      "name": "isMinter",
      "outputs": [
        {
          "name": "",
          "type": "bool"
        }
      ],
      "payable": false,
      "stateMutability": "view",
      "type": "function"
    },
    {
      "constant": false,
      "inputs": [
        {
          "name": "account",
          "type": "address"
        }
      ],
      "name": "addMinter",
      "outputs": [],
      "payable": false,
      "stateMutability": "nonpayable",
      "type": "function"
    },
    {
      "constant": false,
      "inputs": [],
      "name": "renounceMinter",
      "outputs": [],
      "payable": false,
      "stateMutability": "nonpayable",
      "type": "function"
    }
  ],
  "bytecode": "0x608060405234801561001057600080fd5b5061002960003364010000000061014f61002e82021704565b610068565b600160a060020a038116151561004357600080fd5b600160a060020a0316600090815260209190915260409020805460ff19166001179055565b610223806100776000396000f3006080604052600436106100565763ffffffff7c0100000000000000000000000000000000000000000000000000000000600035041663983b2d56811461005b578063986502751461007e578063aa271e1a14610093575b600080fd5b34801561006757600080fd5b5061007c600160a060020a03600435166100c8565b005b34801561008a57600080fd5b5061007c610124565b34801561009f57600080fd5b506100b4600160a060020a0360043516610137565b604080519115158252519081900360200190f35b6100d133610137565b15156100dc57600080fd5b6100ed60008263ffffffff61014f16565b604051600160a060020a038216907f6ae172837ea30b801fbfcdd4108aa1d5bf8ff775444fd70256b44e6bf3dfc3f690600090a250565b61013560003363ffffffff61018916565b565b6000610149818363ffffffff6101c016565b92915050565b600160a060020a038116151561016457600080fd5b600160a060020a0316600090815260209190915260409020805460ff19166001179055565b600160a060020a038116151561019e57600080fd5b600160a060020a0316600090815260209190915260409020805460ff19169055565b6000600160a060020a03821615156101d757600080fd5b50600160a060020a03166000908152602091909152604090205460ff16905600a165627a7a72305820a1f44b04fb5bea5de32e24503fa2fdecbffd55b8b1e75aa0148d5f4300bbb8200029",
  "source": "pragma solidity ^0.4.24;\n\nimport \"../Roles.sol\";\n\n\ncontract MinterRole {\n  using Roles for Roles.Role;\n\n  event MinterAdded(address indexed account);\n  event MinterRemoved(address indexed account);\n\n  Roles.Role private minters;\n\n  constructor() public {\n    minters.add(msg.sender);\n  }\n\n  modifier onlyMinter() {\n    require(isMinter(msg.sender));\n    _;\n  }\n\n  function isMinter(address account) public view returns (bool) {\n    return minters.has(account);\n  }\n\n  function addMinter(address account) public onlyMinter {\n    minters.add(account);\n    emit MinterAdded(account);\n  }\n\n  function renounceMinter() public {\n    minters.remove(msg.sender);\n  }\n\n  function _removeMinter(address account) internal {\n    minters.remove(account);\n    emit MinterRemoved(account);\n  }\n}\n",
  "sourcePath": "openzeppelin-solidity/contracts/access/roles/MinterRole.sol",
  "compiler": {
    "name": "solc",
    "version": "0.4.24+commit.e67f0147.Emscripten.clang"
  },
  "schemaVersion": "2.0.1",
  "updatedAt": "2018-10-17T15:10:36.262Z"
}