{
  "contractName": "StarNotary",
  "abi": [
    {
      "constant": true,
      "inputs": [
        {
          "name": "interfaceId",
          "type": "bytes4"
        }
      ],
      "name": "supportsInterface",
      "outputs": [
        {
          "name": "",
          "type": "bool"
        }
      ],
      "payable": false,
      "stateMutability": "view",
      "type": "function"
    },
    {
      "constant": true,
      "inputs": [],
      "name": "mintingFinished",
      "outputs": [
        {
          "name": "",
          "type": "bool"
        }
      ],
      "payable": false,
      "stateMutability": "view",
      "type": "function"
    },
    {
      "constant": true,
      "inputs": [],
      "name": "name",
      "outputs": [
        {
          "name": "",
          "type": "string"
        }
      ],
      "payable": false,
      "stateMutability": "view",
      "type": "function"
    },
    {
      "constant": true,
      "inputs": [
        {
          "name": "tokenId",
          "type": "uint256"
        }
      ],
      "name": "getApproved",
      "outputs": [
        {
          "name": "",
          "type": "address"
        }
      ],
      "payable": false,
      "stateMutability": "view",
      "type": "function"
    },
    {
      "constant": false,
      "inputs": [
        {
          "name": "to",
          "type": "address"
        },
        {
          "name": "tokenId",
          "type": "uint256"
        }
      ],
      "name": "approve",
      "outputs": [],
      "payable": false,
      "stateMutability": "nonpayable",
      "type": "function"
    },
    {
      "constant": true,
      "inputs": [],
      "name": "totalSupply",
      "outputs": [
        {
          "name": "",
          "type": "uint256"
        }
      ],
      "payable": false,
      "stateMutability": "view",
      "type": "function"
    },
    {
      "constant": false,
      "inputs": [
        {
          "name": "from",
          "type": "address"
        },
        {
          "name": "to",
          "type": "address"
        },
        {
          "name": "tokenId",
          "type": "uint256"
        }
      ],
      "name": "transferFrom",
      "outputs": [],
      "payable": false,
      "stateMutability": "nonpayable",
      "type": "function"
    },
    {
      "constant": true,
      "inputs": [
        {
          "name": "owner",
          "type": "address"
        },
        {
          "name": "index",
          "type": "uint256"
        }
      ],
      "name": "tokenOfOwnerByIndex",
      "outputs": [
        {
          "name": "",
          "type": "uint256"
        }
      ],
      "payable": false,
      "stateMutability": "view",
      "type": "function"
    },
    {
      "constant": false,
      "inputs": [
        {
          "name": "to",
          "type": "address"
        },
        {
          "name": "tokenId",
          "type": "uint256"
        }
      ],
      "name": "mint",
      "outputs": [
        {
          "name": "",
          "type": "bool"
        }
      ],
      "payable": false,
      "stateMutability": "nonpayable",
      "type": "function"
    },
    {
      "constant": false,
      "inputs": [
        {
          "name": "from",
          "type": "address"
        },
        {
          "name": "to",
          "type": "address"
        },
        {
          "name": "tokenId",
          "type": "uint256"
        }
      ],
      "name": "safeTransferFrom",
      "outputs": [],
      "payable": false,
      "stateMutability": "nonpayable",
      "type": "function"
    },
    {
      "constant": true,
      "inputs": [
        {
          "name": "",
          "type": "uint256"
        }
      ],
      "name": "_tokenIdToStarInfo",
      "outputs": [
        {
          "name": "name",
          "type": "string"
        },
        {
          "name": "story",
          "type": "string"
        },
        {
          "name": "ra",
          "type": "string"
        },
        {
          "name": "dec",
          "type": "string"
        },
        {
          "name": "mag",
          "type": "string"
        }
      ],
      "payable": false,
      "stateMutability": "view",
      "type": "function"
    },
    {
      "constant": true,
      "inputs": [
        {
          "name": "index",
          "type": "uint256"
        }
      ],
      "name": "tokenByIndex",
      "outputs": [
        {
          "name": "",
          "type": "uint256"
        }
      ],
      "payable": false,
      "stateMutability": "view",
      "type": "function"
    },
    {
      "constant": false,
      "inputs": [
        {
          "name": "to",
          "type": "address"
        },
        {
          "name": "tokenId",
          "type": "uint256"
        },
        {
          "name": "tokenURI",
          "type": "string"
        }
      ],
      "name": "mintWithTokenURI",
      "outputs": [
        {
          "name": "",
          "type": "bool"
        }
      ],
      "payable": false,
      "stateMutability": "nonpayable",
      "type": "function"
    },
    {
      "constant": true,
      "inputs": [
        {
          "name": "tokenId",
          "type": "uint256"
        }
      ],
      "name": "ownerOf",
      "outputs": [
        {
          "name": "",
          "type": "address"
        }
      ],
      "payable": false,
      "stateMutability": "view",
      "type": "function"
    },
    {
      "constant": true,
      "inputs": [
        {
          "name": "owner",
          "type": "address"
        }
      ],
      "name": "balanceOf",
      "outputs": [
        {
          "name": "",
          "type": "uint256"
        }
      ],
      "payable": false,
      "stateMutability": "view",
      "type": "function"
    },
    {
      "constant": false,
      "inputs": [],
      "name": "finishMinting",
      "outputs": [
        {
          "name": "",
          "type": "bool"
        }
      ],
      "payable": false,
      "stateMutability": "nonpayable",
      "type": "function"
    },
    {
      "constant": true,
      "inputs": [],
      "name": "symbol",
      "outputs": [
        {
          "name": "",
          "type": "string"
        }
      ],
      "payable": false,
      "stateMutability": "view",
      "type": "function"
    },
    {
      "constant": true,
      "inputs": [
        {
          "name": "",
          "type": "uint256"
        }
      ],
      "name": "_starsForSale",
      "outputs": [
        {
          "name": "",
          "type": "uint256"
        }
      ],
      "payable": false,
      "stateMutability": "view",
      "type": "function"
    },
    {
      "constant": false,
      "inputs": [
        {
          "name": "account",
          "type": "address"
        }
      ],
      "name": "addMinter",
      "outputs": [],
      "payable": false,
      "stateMutability": "nonpayable",
      "type": "function"
    },
    {
      "constant": false,
      "inputs": [],
      "name": "renounceMinter",
      "outputs": [],
      "payable": false,
      "stateMutability": "nonpayable",
      "type": "function"
    },
    {
      "constant": false,
      "inputs": [
        {
          "name": "to",
          "type": "address"
        },
        {
          "name": "approved",
          "type": "bool"
        }
      ],
      "name": "setApprovalForAll",
      "outputs": [],
      "payable": false,
      "stateMutability": "nonpayable",
      "type": "function"
    },
    {
      "constant": true,
      "inputs": [
        {
          "name": "account",
          "type": "address"
        }
      ],
      "name": "isMinter",
      "outputs": [
        {
          "name": "",
          "type": "bool"
        }
      ],
      "payable": false,
      "stateMutability": "view",
      "type": "function"
    },
    {
      "constant": false,
      "inputs": [
        {
          "name": "from",
          "type": "address"
        },
        {
          "name": "to",
          "type": "address"
        },
        {
          "name": "tokenId",
          "type": "uint256"
        },
        {
          "name": "_data",
          "type": "bytes"
        }
      ],
      "name": "safeTransferFrom",
      "outputs": [],
      "payable": false,
      "stateMutability": "nonpayable",
      "type": "function"
    },
    {
      "constant": true,
      "inputs": [
        {
          "name": "tokenId",
          "type": "uint256"
        }
      ],
      "name": "tokenURI",
      "outputs": [
        {
          "name": "",
          "type": "string"
        }
      ],
      "payable": false,
      "stateMutability": "view",
      "type": "function"
    },
    {
      "constant": true,
      "inputs": [
        {
          "name": "owner",
          "type": "address"
        },
        {
          "name": "operator",
          "type": "address"
        }
      ],
      "name": "isApprovedForAll",
      "outputs": [
        {
          "name": "",
          "type": "bool"
        }
      ],
      "payable": false,
      "stateMutability": "view",
      "type": "function"
    },
    {
      "inputs": [
        {
          "name": "name",
          "type": "string"
        },
        {
          "name": "symbol",
          "type": "string"
        }
      ],
      "payable": false,
      "stateMutability": "nonpayable",
      "type": "constructor"
    },
    {
      "anonymous": false,
      "inputs": [],
      "name": "MintingFinished",
      "type": "event"
    },
    {
      "anonymous": false,
      "inputs": [
        {
          "indexed": true,
          "name": "account",
          "type": "address"
        }
      ],
      "name": "MinterAdded",
      "type": "event"
    },
    {
      "anonymous": false,
      "inputs": [
        {
          "indexed": true,
          "name": "account",
          "type": "address"
        }
      ],
      "name": "MinterRemoved",
      "type": "event"
    },
    {
      "anonymous": false,
      "inputs": [
        {
          "indexed": true,
          "name": "from",
          "type": "address"
        },
        {
          "indexed": true,
          "name": "to",
          "type": "address"
        },
        {
          "indexed": true,
          "name": "tokenId",
          "type": "uint256"
        }
      ],
      "name": "Transfer",
      "type": "event"
    },
    {
      "anonymous": false,
      "inputs": [
        {
          "indexed": true,
          "name": "owner",
          "type": "address"
        },
        {
          "indexed": true,
          "name": "approved",
          "type": "address"
        },
        {
          "indexed": true,
          "name": "tokenId",
          "type": "uint256"
        }
      ],
      "name": "Approval",
      "type": "event"
    },
    {
      "anonymous": false,
      "inputs": [
        {
          "indexed": true,
          "name": "owner",
          "type": "address"
        },
        {
          "indexed": true,
          "name": "operator",
          "type": "address"
        },
        {
          "indexed": false,
          "name": "approved",
          "type": "bool"
        }
      ],
      "name": "ApprovalForAll",
      "type": "event"
    },
    {
      "constant": false,
      "inputs": [
        {
          "name": "_name",
          "type": "string"
        },
        {
          "name": "_story",
          "type": "string"
        },
        {
          "name": "_ra",
          "type": "string"
        },
        {
          "name": "_dec",
          "type": "string"
        },
        {
          "name": "_mag",
          "type": "string"
        },
        {
          "name": "_tokenId",
          "type": "uint256"
        }
      ],
      "name": "createStar",
      "outputs": [],
      "payable": false,
      "stateMutability": "nonpayable",
      "type": "function"
    },
    {
      "constant": true,
      "inputs": [
        {
          "name": "_ra",
          "type": "string"
        },
        {
          "name": "_dec",
          "type": "string"
        },
        {
          "name": "_mag",
          "type": "string"
        }
      ],
      "name": "checkIfStarExists",
      "outputs": [
        {
          "name": "",
          "type": "bool"
        }
      ],
      "payable": false,
      "stateMutability": "view",
      "type": "function"
    },
    {
      "constant": true,
      "inputs": [
        {
          "name": "_tokenId",
          "type": "uint256"
        }
      ],
      "name": "tokenIdToStarInfo",
      "outputs": [
        {
          "name": "name",
          "type": "string"
        },
        {
          "name": "story",
          "type": "string"
        },
        {
          "name": "ra",
          "type": "string"
        },
        {
          "name": "dec",
          "type": "string"
        },
        {
          "name": "mag",
          "type": "string"
        }
      ],
      "payable": false,
      "stateMutability": "view",
      "type": "function"
    },
    {
      "constant": false,
      "inputs": [
        {
          "name": "_tokenId",
          "type": "uint256"
        },
        {
          "name": "_price",
          "type": "uint256"
        }
      ],
      "name": "putStarUpForSale",
      "outputs": [],
      "payable": false,
      "stateMutability": "nonpayable",
      "type": "function"
    },
    {
      "constant": false,
      "inputs": [
        {
          "name": "_tokenId",
          "type": "uint256"
        }
      ],
      "name": "buyStar",
      "outputs": [],
      "payable": true,
      "stateMutability": "payable",
      "type": "function"
    }
  ],
  "bytecode": "0x6080604052600d805460ff191690553480156200001b57600080fd5b50604051620028c4380380620028c48339810160405280516020820151908201910181818181620000757f01ffc9a70000000000000000000000000000000000000000000000000000000064010000000062000167810204565b620000a97f80ac58cd0000000000000000000000000000000000000000000000000000000064010000000062000167810204565b620000dd7f780e9d630000000000000000000000000000000000000000000000000000000064010000000062000167810204565b8151620000f29060099060208501906200020f565b5080516200010890600a9060208401906200020f565b506200013d7f5b5e139f0000000000000000000000000000000000000000000000000000000064010000000062000167810204565b506200015f9250600c915033905064010000000062001fca620001d482021704565b5050620002b4565b7fffffffff0000000000000000000000000000000000000000000000000000000080821614156200019757600080fd5b7fffffffff00000000000000000000000000000000000000000000000000000000166000908152602081905260409020805460ff19166001179055565b600160a060020a0381161515620001ea57600080fd5b600160a060020a0316600090815260209190915260409020805460ff19166001179055565b828054600181600116156101000203166002900490600052602060002090601f016020900481019282601f106200025257805160ff191683800117855562000282565b8280016001018555821562000282579182015b828111156200028257825182559160200191906001019062000265565b506200029092915062000294565b5090565b620002b191905b808211156200029057600081556001016200029b565b90565b61260080620002c46000396000f3006080604052600436106101665763ffffffff60e060020a60003504166301ffc9a7811461016b57806305d2035b146101b657806306fdde03146101cb578063081812fc14610255578063095ea7b31461028957806318160ddd146102af5780631967fd98146102d657806323b872dd146104fe5780632b6e25f5146105285780632f1c34ef146105fd5780632f745c5914610608578063316a43611461062c57806340c10f191461064757806342842e0e1461066b5780634cd24389146106955780634f6ccce7146106ad57806350bb4e7f146106c55780636352211e1461072e57806370a08231146107465780637d64bcb41461076757806395d89b411461077c57806397e2782c14610791578063983b2d56146107a957806398650275146107ca578063a22cb465146107df578063aa271e1a14610805578063b250ced014610826578063b88d4fde14610979578063c87b56dd146109e8578063e985e9c514610a00575b600080fd5b34801561017757600080fd5b506101a27bffffffffffffffffffffffffffffffffffffffffffffffffffffffff1960043516610a27565b604080519115158252519081900360200190f35b3480156101c257600080fd5b506101a2610a5b565b3480156101d757600080fd5b506101e0610a65565b6040805160208082528351818301528351919283929083019185019080838360005b8381101561021a578181015183820152602001610202565b50505050905090810190601f1680156102475780820380516001836020036101000a031916815260200191505b509250505060405180910390f35b34801561026157600080fd5b5061026d600435610afb565b60408051600160a060020a039092168252519081900360200190f35b34801561029557600080fd5b506102ad600160a060020a0360043516602435610b2d565b005b3480156102bb57600080fd5b506102c4610be3565b60408051918252519081900360200190f35b3480156102e257600080fd5b506102ee600435610be9565b60405180806020018060200180602001806020018060200186810386528b818151815260200191508051906020019080838360005b8381101561033b578181015183820152602001610323565b50505050905090810190601f1680156103685780820380516001836020036101000a031916815260200191505b5086810385528a5181528a516020918201918c019080838360005b8381101561039b578181015183820152602001610383565b50505050905090810190601f1680156103c85780820380516001836020036101000a031916815260200191505b5086810384528951815289516020918201918b019080838360005b838110156103fb5781810151838201526020016103e3565b50505050905090810190601f1680156104285780820380516001836020036101000a031916815260200191505b5086810383528851815288516020918201918a019080838360005b8381101561045b578181015183820152602001610443565b50505050905090810190601f1680156104885780820380516001836020036101000a031916815260200191505b50868103825287518152875160209182019189019080838360005b838110156104bb5781810151838201526020016104a3565b50505050905090810190601f1680156104e85780820380516001836020036101000a031916815260200191505b509a505050505050505050505060405180910390f35b34801561050a57600080fd5b506102ad600160a060020a0360043581169060243516604435610fcf565b34801561053457600080fd5b506040805160206004803580820135601f81018490048402850184019095528484526101a294369492936024939284019190819084018382808284375050604080516020601f89358b018035918201839004830284018301909452808352979a99988101979196509182019450925082915084018382808284375050604080516020601f89358b018035918201839004830284018301909452808352979a99988101979196509182019450925082915084018382808284375094975061105d9650505050505050565b6102ad6004356110fa565b34801561061457600080fd5b506102c4600160a060020a0360043516602435611239565b34801561063857600080fd5b506102ad600435602435611286565b34801561065357600080fd5b506101a2600160a060020a036004351660243561132a565b34801561067757600080fd5b506102ad600160a060020a0360043581169060243516604435611363565b3480156106a157600080fd5b506102ee60043561137f565b3480156106b957600080fd5b506102c4600435611670565b3480156106d157600080fd5b50604080516020600460443581810135601f81018490048402850184019095528484526101a2948235600160a060020a03169460248035953695946064949201919081908401838280828437509497506116a59650505050505050565b34801561073a57600080fd5b5061026d6004356116ea565b34801561075257600080fd5b506102c4600160a060020a0360043516611714565b34801561077357600080fd5b506101a2611747565b34801561078857600080fd5b506101e06117a9565b34801561079d57600080fd5b506102c460043561180a565b3480156107b557600080fd5b506102ad600160a060020a036004351661181c565b3480156107d657600080fd5b506102ad611878565b3480156107eb57600080fd5b506102ad600160a060020a0360043516602435151561188b565b34801561081157600080fd5b506101a2600160a060020a036004351661190f565b34801561083257600080fd5b506040805160206004803580820135601f81018490048402850184019095528484526102ad94369492936024939284019190819084018382808284375050604080516020601f89358b018035918201839004830284018301909452808352979a99988101979196509182019450925082915084018382808284375050604080516020601f89358b018035918201839004830284018301909452808352979a99988101979196509182019450925082915084018382808284375050604080516020601f89358b018035918201839004830284018301909452808352979a99988101979196509182019450925082915084018382808284375050604080516020601f89358b018035918201839004830284018301909452808352979a99988101979196509182019450925082915084018382808284375094975050933594506119229350505050565b34801561098557600080fd5b50604080516020601f6064356004818101359283018490048402850184019095528184526102ad94600160a060020a038135811695602480359092169560443595369560849401918190840183828082843750949750611bf19650505050505050565b3480156109f457600080fd5b506101e0600435611c13565b348015610a0c57600080fd5b506101a2600160a060020a0360043581169060243516611cc8565b7bffffffffffffffffffffffffffffffffffffffffffffffffffffffff191660009081526020819052604090205460ff1690565b600d5460ff165b90565b60098054604080516020601f6002600019610100600188161502019095169490940493840181900481028201810190925282815260609390929091830182828015610af15780601f10610ac657610100808354040283529160200191610af1565b820191906000526020600020905b815481529060010190602001808311610ad457829003601f168201915b5050505050905090565b6000610b0682611cf6565b1515610b1157600080fd5b50600090815260026020526040902054600160a060020a031690565b6000610b38826116ea565b9050600160a060020a038381169082161415610b5357600080fd5b33600160a060020a0382161480610b6f5750610b6f8133611cc8565b1515610b7a57600080fd5b600082815260026020526040808220805473ffffffffffffffffffffffffffffffffffffffff1916600160a060020a0387811691821790925591518593918516917f8c5be1e5ebec7d5bd14f71427d1e84f3dd0314c0f7b2291e5b200ac8c7c3b92591a4505050565b60075490565b6060806060806060610bf96124ec565b6000878152600f602052604090205460ff161515600114610ca157604080517f08c379a000000000000000000000000000000000000000000000000000000000815260206004820152602160248201527f4552524f523a205468697320746f6b656e20646f6573206e6f7420657869737460448201527f7300000000000000000000000000000000000000000000000000000000000000606482015290519081900360840190fd5b6000878152600e60209081526040918290208251815460026001821615610100026000190190911604601f8101849004909302810160c090810190945260a08101838152909391928492849190840182828015610d3f5780601f10610d1457610100808354040283529160200191610d3f565b820191906000526020600020905b815481529060010190602001808311610d2257829003601f168201915b50505050508152602001600182018054600181600116156101000203166002900480601f016020809104026020016040519081016040528092919081815260200182805460018160011615610100020316600290048015610de15780601f10610db657610100808354040283529160200191610de1565b820191906000526020600020905b815481529060010190602001808311610dc457829003601f168201915b5050509183525050600282810180546040805160206001841615610100026000190190931694909404601f81018390048302850183019091528084529381019390830182828015610e735780601f10610e4857610100808354040283529160200191610e73565b820191906000526020600020905b815481529060010190602001808311610e5657829003601f168201915b505050918352505060038201805460408051602060026001851615610100026000190190941693909304601f8101849004840282018401909252818152938201939291830182828015610f075780601f10610edc57610100808354040283529160200191610f07565b820191906000526020600020905b815481529060010190602001808311610eea57829003601f168201915b505050918352505060048201805460408051602060026001851615610100026000190190941693909304601f8101849004840282018401909252818152938201939291830182828015610f9b5780601f10610f7057610100808354040283529160200191610f9b565b820191906000526020600020905b815481529060010190602001808311610f7e57829003601f168201915b5050509190925250508151602083015160408401516060850151608090950151929c919b5099509297509550909350505050565b610fd93382611d13565b1515610fe457600080fd5b600160a060020a0382161515610ff957600080fd5b6110038382611d72565b61100d8382611de3565b6110178282611eea565b8082600160a060020a031684600160a060020a03167fddf252ad1be2c89b69c2b068fc378daa952ba7f163c4a11628f55a4df523b3ef60405160405180910390a4505050565b6000606061106c858585611f33565b905060106000826040518082805190602001908083835b602083106110a25780518252601f199092019160209182019101611083565b51815160209384036101000a60001901801990921691161790526040805192909401829003909120865285019590955292909201600020541592506110ed91505057600191506110f2565b600091505b509392505050565b6000818152601160205260408120548190811061111657600080fd5b6011600084815260200190815260200160002054915030600160a060020a0316636352211e846040518263ffffffff1660e060020a02815260040180828152602001915050602060405180830381600087803b15801561117557600080fd5b505af1158015611189573d6000803e3d6000fd5b505050506040513d602081101561119f57600080fd5b50519050348211156111b057600080fd5b6111ba8184611de3565b6111c43384611eea565b604051600160a060020a0382169083156108fc029084906000818181858888f193505050501580156111fa573d6000803e3d6000fd5b50813411156112345760405133903484900380156108fc02916000818181858888f19350505050158015611232573d6000803e3d6000fd5b505b505050565b600061124483611714565b821061124f57600080fd5b600160a060020a038316600090815260056020526040902080548390811061127357fe5b9060005260206000200154905092915050565b33600160a060020a031630600160a060020a0316636352211e846040518263ffffffff1660e060020a02815260040180828152602001915050602060405180830381600087803b1580156112d957600080fd5b505af11580156112ed573d6000803e3d6000fd5b505050506040513d602081101561130357600080fd5b5051600160a060020a03161461131857600080fd5b60009182526011602052604090912055565b60006113353361190f565b151561134057600080fd5b600d5460ff161561135057600080fd5b61135a8383611f48565b50600192915050565b6112348383836020604051908101604052806000815250611bf1565b600e6020908152600091825260409182902080548351601f600260001961010060018616150201909316929092049182018490048402810184019094528084529092918391908301828280156114165780601f106113eb57610100808354040283529160200191611416565b820191906000526020600020905b8154815290600101906020018083116113f957829003601f168201915b505050505090806001018054600181600116156101000203166002900480601f0160208091040260200160405190810160405280929190818152602001828054600181600116156101000203166002900480156114b45780601f10611489576101008083540402835291602001916114b4565b820191906000526020600020905b81548152906001019060200180831161149757829003601f168201915b50505060028085018054604080516020601f60001961010060018716150201909416959095049283018590048502810185019091528181529596959450909250908301828280156115465780601f1061151b57610100808354040283529160200191611546565b820191906000526020600020905b81548152906001019060200180831161152957829003601f168201915b5050505060038301805460408051602060026001851615610100026000190190941693909304601f81018490048402820184019092528181529495949350908301828280156115d65780601f106115ab576101008083540402835291602001916115d6565b820191906000526020600020905b8154815290600101906020018083116115b957829003601f168201915b5050505060048301805460408051602060026001851615610100026000190190941693909304601f81018490048402820184019092528181529495949350908301828280156116665780601f1061163b57610100808354040283529160200191611666565b820191906000526020600020905b81548152906001019060200180831161164957829003601f168201915b5050505050905085565b600061167a610be3565b821061168557600080fd5b600780548390811061169357fe5b90600052602060002001549050919050565b60006116b03361190f565b15156116bb57600080fd5b600d5460ff16156116cb57600080fd5b6116d5848461132a565b506116e08383611f97565b5060019392505050565b600081815260016020526040812054600160a060020a031680151561170e57600080fd5b92915050565b6000600160a060020a038216151561172b57600080fd5b50600160a060020a031660009081526003602052604090205490565b60006117523361190f565b151561175d57600080fd5b600d5460ff161561176d57600080fd5b600d805460ff191660011790556040517fb828d9b5c78095deeeeff2eca2e5d4fe046ce3feb4c99702624a3fd384ad2dbc90600090a150600190565b600a8054604080516020601f6002600019610100600188161502019095169490940493840181900481028201810190925282815260609390929091830182828015610af15780601f10610ac657610100808354040283529160200191610af1565b60116020526000908152604090205481565b6118253361190f565b151561183057600080fd5b611841600c8263ffffffff611fca16565b604051600160a060020a038216907f6ae172837ea30b801fbfcdd4108aa1d5bf8ff775444fd70256b44e6bf3dfc3f690600090a250565b611889600c3363ffffffff61200416565b565b600160a060020a0382163314156118a157600080fd5b336000818152600460209081526040808320600160a060020a03871680855290835292819020805460ff1916861515908117909155815190815290519293927f17307eab39ab6107e8899845ad3d59bd9653f200f220920489ca2b5937696c31929181900390910190a35050565b600061170e600c8363ffffffff61203b16565b61192a6124ec565b6060600061193987878761105d565b156119cb57604080517f08c379a000000000000000000000000000000000000000000000000000000000815260206004820152603560248201527f4552524f523a205468652073746172207769746820746865736520636f6f726460448201527f696e6174657320616c7265616479206578697374730000000000000000000000606482015290519081900360840190fd5b60a0604051908101604052808a8152602001898152602001611a226040805190810160405280600381526020017f72615f00000000000000000000000000000000000000000000000000000000008152508a612072565b8152602001611a666040805190810160405280600481526020017f6465635f0000000000000000000000000000000000000000000000000000000081525089612072565b8152602001611aaa6040805190810160405280600481526020017f6d61675f0000000000000000000000000000000000000000000000000000000081525088612072565b90526000858152600e602090815260409091208251805193965086939192611ad79284929091019061251c565b506020828101518051611af0926001850192019061251c565b5060408201518051611b0c91600284019160209091019061251c565b5060608201518051611b2891600384019160209091019061251c565b5060808201518051611b4491600484019160209091019061251c565b5050506000848152600f60205260409020805460ff19166001179055611b6b878787611f33565b9150816040518082805190602001908083835b60208310611b9d5780518252601f199092019160209182019101611b7e565b51815160209384036101000a6000190180199092169116179052604080519290940182900390912060008181526010909252929020889055509250611be6915033905085611f48565b505050505050505050565b611bfc848484610fcf565b611c08848484846121b1565b151561123257600080fd5b6060611c1e82611cf6565b1515611c2957600080fd5b6000828152600b602090815260409182902080548351601f600260001961010060018616150201909316929092049182018490048402810184019094528084529091830182828015611cbc5780601f10611c9157610100808354040283529160200191611cbc565b820191906000526020600020905b815481529060010190602001808311611c9f57829003601f168201915b50505050509050919050565b600160a060020a03918216600090815260046020908152604080832093909416825291909152205460ff1690565b600090815260016020526040902054600160a060020a0316151590565b600080611d1f836116ea565b905080600160a060020a031684600160a060020a03161480611d5a575083600160a060020a0316611d4f84610afb565b600160a060020a0316145b80611d6a5750611d6a8185611cc8565b949350505050565b81600160a060020a0316611d85826116ea565b600160a060020a031614611d9857600080fd5b600081815260026020526040902054600160a060020a031615611ddf576000818152600260205260409020805473ffffffffffffffffffffffffffffffffffffffff191690555b5050565b6000806000611df28585612333565b600084815260066020908152604080832054600160a060020a0389168452600590925290912054909350611e2d90600163ffffffff6123c916565b600160a060020a038616600090815260056020526040902080549193509083908110611e5557fe5b90600052602060002001549050806005600087600160a060020a0316600160a060020a0316815260200190815260200160002084815481101515611e9557fe5b6000918252602080832090910192909255600160a060020a0387168152600590915260409020805490611ecc90600019830161259a565b50600093845260066020526040808520859055908452909220555050565b6000611ef683836123e0565b50600160a060020a039091166000908152600560209081526040808320805460018101825590845282842081018590559383526006909152902055565b6060611d6a611f428585612072565b83612072565b611f528282612470565b600780546000838152600860205260408120829055600182018355919091527fa66cc928b5edb82af9bd49922954155ab7b0942694bea4ce44661d9a8736c688015550565b611fa082611cf6565b1515611fab57600080fd5b6000828152600b6020908152604090912082516112349284019061251c565b600160a060020a0381161515611fdf57600080fd5b600160a060020a0316600090815260209190915260409020805460ff19166001179055565b600160a060020a038116151561201957600080fd5b600160a060020a0316600090815260209190915260409020805460ff19169055565b6000600160a060020a038216151561205257600080fd5b50600160a060020a03166000908152602091909152604090205460ff1690565b6060806060806060600087945086935083518551016040519080825280601f01601f1916602001820160405280156120b4578160200160208202803883390190505b509250829150600090505b845181101561212f5784818151811015156120d657fe5b90602001015160f860020a900460f860020a0282828151811015156120f757fe5b9060200101907effffffffffffffffffffffffffffffffffffffffffffffffffffffffffffff1916908160001a9053506001016120bf565b5060005b83518110156121a657838181518110151561214a57fe5b90602001015160f860020a900460f860020a02828287510181518110151561216e57fe5b9060200101907effffffffffffffffffffffffffffffffffffffffffffffffffffffffffffff1916908160001a905350600101612133565b509695505050505050565b6000806121c685600160a060020a03166124cb565b15156121d5576001915061232a565b6040517f150b7a020000000000000000000000000000000000000000000000000000000081523360048201818152600160a060020a03898116602485015260448401889052608060648501908152875160848601528751918a169463150b7a0294938c938b938b93909160a490910190602085019080838360005b83811015612268578181015183820152602001612250565b50505050905090810190601f1680156122955780820380516001836020036101000a031916815260200191505b5095505050505050602060405180830381600087803b1580156122b757600080fd5b505af11580156122cb573d6000803e3d6000fd5b505050506040513d60208110156122e157600080fd5b50517bffffffffffffffffffffffffffffffffffffffffffffffffffffffff1981167f150b7a020000000000000000000000000000000000000000000000000000000014925090505b50949350505050565b81600160a060020a0316612346826116ea565b600160a060020a03161461235957600080fd5b600160a060020a03821660009081526003602052604090205461238390600163ffffffff6123c916565b600160a060020a03909216600090815260036020908152604080832094909455918152600190915220805473ffffffffffffffffffffffffffffffffffffffff19169055565b600080838311156123d957600080fd5b5050900390565b600081815260016020526040902054600160a060020a03161561240257600080fd5b6000818152600160208181526040808420805473ffffffffffffffffffffffffffffffffffffffff1916600160a060020a0388169081179091558452600390915290912054612450916124d3565b600160a060020a0390921660009081526003602052604090209190915550565b600160a060020a038216151561248557600080fd5b61248f8282611eea565b6040518190600160a060020a038416906000907fddf252ad1be2c89b69c2b068fc378daa952ba7f163c4a11628f55a4df523b3ef908290a45050565b6000903b1190565b6000828201838110156124e557600080fd5b9392505050565b60a06040519081016040528060608152602001606081526020016060815260200160608152602001606081525090565b828054600181600116156101000203166002900490600052602060002090601f016020900481019282601f1061255d57805160ff191683800117855561258a565b8280016001018555821561258a579182015b8281111561258a57825182559160200191906001019061256f565b506125969291506125ba565b5090565b815481835581811115611234576000838152602090206112349181019083015b610a6291905b8082111561259657600081556001016125c05600a165627a7a723058207af8309b1e5ecb125cb8a222925a7e849a33911ea60c28398267558360d673970029",
  "source": "pragma solidity ^0.4.23;\n\nimport 'openzeppelin-solidity/contracts/token/ERC721/ERC721Mintable.sol';\n\ncontract StarNotary is ERC721Mintable {\n\n    struct Star {\n        string name;\n        string story;\n        string ra;\n        string dec;\n        string mag;\n    }\n\n    mapping(uint256 => Star) public _tokenIdToStarInfo;\n    mapping(uint256 => bool) _isTokenId;\n    mapping(bytes32 => uint256) _isStar;\n    mapping(uint256 => uint256) public _starsForSale;\n\n    constructor(string name, string symbol) ERC721Full (name, symbol) public {}\n\n    function createStar(string _name, string _story, string _ra, string _dec, string _mag, uint256 _tokenId) public {\n        require(checkIfStarExists(_ra, _dec, _mag) == false, \"ERROR: The star with these coordinates already exists\");\n\n        Star memory starData = Star(_name, _story, concatTwoStrings(\"ra_\", _ra), concatTwoStrings(\"dec_\", _dec), concatTwoStrings(\"mag_\", _mag));\n\n        _tokenIdToStarInfo[_tokenId] = starData;\n        _isTokenId[_tokenId] = true;\n        bytes memory coordinates = bytes(concatThreeStrings(_ra, _dec, _mag));\n        bytes32 coordinatesHash = keccak256(coordinates);\n        _isStar[coordinatesHash] = _tokenId;\n\n        _mint(msg.sender, _tokenId);\n    }\n\n    function checkIfStarExists(string _ra, string _dec, string _mag) public view returns (bool) {\n        bytes memory coordinates = bytes(concatThreeStrings(_ra, _dec, _mag));\n        if (_isStar[keccak256(coordinates)] != 0) {\n            return true;\n        }\n        return false;\n    }\n\n    function tokenIdToStarInfo(uint256 _tokenId) public view returns (string name, string story, string ra, string dec, string mag) {\n        require(_isTokenId[_tokenId] == true, \"ERROR: This token does not exists\");\n        Star memory starData = _tokenIdToStarInfo[_tokenId];\n        return (starData.name, starData.story, starData.ra, starData.dec, starData.mag);\n    }\n\n    function putStarUpForSale(uint256 _tokenId, uint256 _price) public {\n        require(this.ownerOf(_tokenId) == msg.sender);\n\n        _starsForSale[_tokenId] = _price;\n    }\n\n    function buyStar(uint256 _tokenId) public payable {\n        require(_starsForSale[_tokenId] > 0);\n\n        uint256 starCost = _starsForSale[_tokenId];\n        address starOwner = this.ownerOf(_tokenId);\n        require(msg.value >= starCost);\n\n        _removeTokenFrom(starOwner, _tokenId);\n        _addTokenTo(msg.sender, _tokenId);\n\n        starOwner.transfer(starCost);\n\n        if (msg.value > starCost) {\n            msg.sender.transfer(msg.value - starCost);\n        }\n    }\n\n    function concatTwoStrings(string _string1, string _string2) internal constant returns (string){\n        bytes memory string1 = bytes(_string1);\n        bytes memory string2 = bytes(_string2);\n\n        string memory combinedString = new string(string1.length + string2.length);\n\n        bytes memory combinedStringArray = bytes(combinedString);\n\n        for (uint i = 0; i < string1.length; i++) {\n            combinedStringArray[i] = string1[i];\n        }\n\n        for (i = 0; i < string2.length; i++) {\n            combinedStringArray[string1.length + i] = string2[i];\n        }\n\n        return string(combinedStringArray);\n    }\n\n    function concatThreeStrings(string _string1, string _string2, string _string3) internal constant returns (string) {\n        return concatTwoStrings(concatTwoStrings(_string1, _string2), _string3);\n    }\n}",
  "sourcePath": "/home/manish/Desktop/Udacity/Blockchain Developer Nanodegree Program/P5 - Decentralized Star Notary/Project 5 - Boilerplate with Zeppelin/smart_contracts/contracts/StarNotary.sol",
  "compiler": {
    "name": "solc",
    "version": "0.4.24+commit.e67f0147.Emscripten.clang"
  },
  "schemaVersion": "2.0.1",
  "updatedAt": "2018-10-18T15:00:32.964Z"
}