{
  "contractName": "ManufacturerRole",
  "abi": [
    {
      "inputs": [],
      "payable": false,
      "stateMutability": "nonpayable",
      "type": "constructor"
    },
    {
      "anonymous": false,
      "inputs": [
        {
          "indexed": true,
          "name": "account",
          "type": "address"
        }
      ],
      "name": "ManufacturerAdded",
      "type": "event"
    },
    {
      "anonymous": false,
      "inputs": [
        {
          "indexed": true,
          "name": "account",
          "type": "address"
        }
      ],
      "name": "ManufacturerRemoved",
      "type": "event"
    },
    {
      "constant": true,
      "inputs": [
        {
          "name": "account",
          "type": "address"
        }
      ],
      "name": "isManufacturer",
      "outputs": [
        {
          "name": "",
          "type": "bool"
        }
      ],
      "payable": false,
      "stateMutability": "view",
      "type": "function"
    },
    {
      "constant": false,
      "inputs": [
        {
          "name": "account",
          "type": "address"
        }
      ],
      "name": "addManufacturer",
      "outputs": [],
      "payable": false,
      "stateMutability": "nonpayable",
      "type": "function"
    },
    {
      "constant": false,
      "inputs": [],
      "name": "renounceManufacturer",
      "outputs": [],
      "payable": false,
      "stateMutability": "nonpayable",
      "type": "function"
    }
  ],
  "bytecode": "0x608060405234801561001057600080fd5b506100293361002e640100000000026401000000009004565b6101e8565b61004f8160006100956401000000000261028d179091906401000000009004565b8073ffffffffffffffffffffffffffffffffffffffff167f561138658ca49a8540dc70dcfe64c9026c1c5b9344642242dd6562970f9c127860405160405180910390a250565b600073ffffffffffffffffffffffffffffffffffffffff168173ffffffffffffffffffffffffffffffffffffffff16141515156100d157600080fd5b6100ea8282610154640100000000026401000000009004565b1515156100f657600080fd5b60018260000160008373ffffffffffffffffffffffffffffffffffffffff1673ffffffffffffffffffffffffffffffffffffffff16815260200190815260200160002060006101000a81548160ff0219169083151502179055505050565b60008073ffffffffffffffffffffffffffffffffffffffff168273ffffffffffffffffffffffffffffffffffffffff161415151561019157600080fd5b8260000160008373ffffffffffffffffffffffffffffffffffffffff1673ffffffffffffffffffffffffffffffffffffffff16815260200190815260200160002060009054906101000a900460ff16905092915050565b610418806101f76000396000f300608060405260043610610057576000357c0100000000000000000000000000000000000000000000000000000000900463ffffffff16806317d4a4911461005c5780635f8a5afa146100b7578063de07f34e146100fa575b600080fd5b34801561006857600080fd5b5061009d600480360381019080803573ffffffffffffffffffffffffffffffffffffffff169060200190929190505050610111565b604051808215151515815260200191505060405180910390f35b3480156100c357600080fd5b506100f8600480360381019080803573ffffffffffffffffffffffffffffffffffffffff16906020019092919050505061012e565b005b34801561010657600080fd5b5061010f61013a565b005b600061012782600061014590919063ffffffff16565b9050919050565b610137816101d9565b50565b61014333610233565b565b60008073ffffffffffffffffffffffffffffffffffffffff168273ffffffffffffffffffffffffffffffffffffffff161415151561018257600080fd5b8260000160008373ffffffffffffffffffffffffffffffffffffffff1673ffffffffffffffffffffffffffffffffffffffff16815260200190815260200160002060009054906101000a900460ff16905092915050565b6101ed81600061028d90919063ffffffff16565b8073ffffffffffffffffffffffffffffffffffffffff167f561138658ca49a8540dc70dcfe64c9026c1c5b9344642242dd6562970f9c127860405160405180910390a250565b61024781600061033d90919063ffffffff16565b8073ffffffffffffffffffffffffffffffffffffffff167f2fed5abf6a80d6dfe30b4895481b2fc5d7dce5f8f7b931832f4a2947d5040c7f60405160405180910390a250565b600073ffffffffffffffffffffffffffffffffffffffff168173ffffffffffffffffffffffffffffffffffffffff16141515156102c957600080fd5b6102d38282610145565b1515156102df57600080fd5b60018260000160008373ffffffffffffffffffffffffffffffffffffffff1673ffffffffffffffffffffffffffffffffffffffff16815260200190815260200160002060006101000a81548160ff0219169083151502179055505050565b600073ffffffffffffffffffffffffffffffffffffffff168173ffffffffffffffffffffffffffffffffffffffff161415151561037957600080fd5b6103838282610145565b151561038e57600080fd5b60008260000160008373ffffffffffffffffffffffffffffffffffffffff1673ffffffffffffffffffffffffffffffffffffffff16815260200190815260200160002060006101000a81548160ff02191690831515021790555050505600a165627a7a723058205152a3ec6d54d19ac5955e29807b6e10a8f6f1601f4c4cb0c0a09427c1881b7a0029",
  "source": "pragma solidity ^0.4.24;\n\n// Import the library 'Roles'\nimport \"./Roles.sol\";\n\n// Define a contract 'ManufacturerRole' to manage this role - add, remove, check\ncontract ManufacturerRole {\n    using Roles for Roles.Role;\n\n    // Define 2 events, one for Adding, and other for Removing\n    event ManufacturerAdded(address indexed account);\n    event ManufacturerRemoved(address indexed account);\n\n    // Define a struct 'manufacturers' by inheriting from 'Roles' library, struct Role\n    Roles.Role private manufacturers;\n\n    // In the constructor make the address that deploys this contract the 1st manufacturer\n    constructor() public {\n        _addManufacturer(msg.sender);\n    }\n\n    // Define a modifier that checks to see if msg.sender has the appropriate role\n    modifier onlyManufacturer() {\n        require(isManufacturer(msg.sender));\n        _;\n    }\n\n    // Define a function 'isManufacturer' to check this role\n    function isManufacturer(address account) public view returns (bool) {\n        return manufacturers.has(account);\n    }\n\n    // Define a function 'addManufacturer' that adds this role\n    function addManufacturer(address account) public {\n        _addManufacturer(account);\n    }\n\n    // Define a function 'renounceManufacturer' to renounce this role\n    function renounceManufacturer() public {\n        _removeManufacturer(msg.sender);\n    }\n\n    // Define an internal function '_addManufacturer' to add this role, called by 'addManufacturer'\n    function _addManufacturer(address account) internal {\n        manufacturers.add(account);\n        emit ManufacturerAdded(account);\n    }\n\n    // Define an internal function '_removeManufacturer' to remove this role, called by 'removeManufacturer'\n    function _removeManufacturer(address account) internal {\n        manufacturers.remove(account);\n        emit ManufacturerRemoved(account);\n    }\n}",
  "sourcePath": "/Users/manishbisht/Desktop/Udacity/Blockchain Developer Nanodegree/P6 - Architect a Blockchain Supply Chain Solution/Part B/Starter_Code/project-6/contracts/accessControl/ManufacturerRole.sol",
  "compiler": {
    "name": "solc",
    "version": "0.4.25+commit.59dbf8f1.Emscripten.clang"
  },
  "schemaVersion": "2.0.2",
  "updatedAt": "2019-02-13T02:36:28.385Z"
}